:100000000C9464000C941D070C9481000C948100E6
:100010000C9481000C9481000C9481000C9481005C
:100020000C9481000C9481000C9481000C94530872
:100030000C9481000C9481000C9481000C9481003C
:100040000C9481000C9481000C94A9070C948100FD
:100050000C9481000C9481000C9481000C9481001C
:100060000C9481000C9481007152636D642C3732C2
:1000700036353733363537340071735468726561FD
:1000800064496E666F007166546872656164496E9A
:10009000666F0071430071537570706F72746564A0
:1000A0000054585832303A58583B32313A58585820
:1000B000583B32323A58585858585858583B746838
:1000C000726561643A313B0011241FBECFEFD8E066
:1000D000DEBFCDBF11E0A0E0B1E0ECE1F1E102C094
:1000E00005900D92A832B107D9F722E0A8E2B1E05D
:1000F00001C01D92AC31B207E1F70E94FB070C94DE
:100100008C080C940000FB01849108959FEB980FDC
:10011000963010F4875308959FE9980F963010F4A5
:100120008755089580538A3008F08FEF0895FF9225
:100130000F931F93CF93DF938C01EB0118821982E9
:100140001A821B82F12CF801EF0DF11D80810E94B3
:100150008600282F8F3FA9F088819981AA81BB81D1
:1001600034E0880F991FAA1FBB1F3A95D1F7820F61
:10017000911DA11DB11D88839983AA83BB83F3942C
:10018000E2CF8F2DDF91CF911F910F91FF900895B6
:10019000CF93AC01A0911A02B0911B025896CC915A
:1001A0005897CC23A1F190E080E0282F30E0F901AE
:1001B000EE0FFF1FEA0FFB1F65817681641775073D
:1001C00059F49F5F9C1740F0220F331FFD01E20F8F
:1001D000F31F1682158213C0E92FF0E0EE0FFF1F08
:1001E000EA0FFB1F65817681220F331FFD01E20FAD
:1001F000F31F768365838F5F9F5F9C17B0F289172B
:1002000040F4C1505896CC935897C11102C05796EC
:100210001C92CF910895E0ECF0E0908195FFFDCF26
:100220008093C60008950F931F93CF93DF938C01A3
:10023000D62F84E20E940B01C0E0DD2351F0F801CB
:1002400080810E940B01F80181918F01C80FD1506C
:10025000F4CF83E20E940B018C2F82958F708A303D
:1002600010F0895A01C0805D0E940B01CF70CA3026
:1002700018F087E58C0F02C080E38C0FDF91CF91DF
:100280001F910F910C940B01E0ECF0E0808188232A
:10029000ECF78091C6000895CF92DF92EF92FF9223
:1002A000CF93C82F80911A0290911B02FC01C3804A
:1002B000D480E12CF12CCC0CDD1CEE1CFF1C46E2A2
:1002C00050E061EA70E049960E946D08E0911A02E0
:1002D000F0911B02DF01A658BF4F86E28C938C2F52
:1002E00082958F708A3010F0895A01C0805D828FAC
:1002F0008C2F8F708A3010F0895A01C0805D838FF7
:100300008091150282958F708A3010F0895A01C051
:10031000805D878F809115028F708A3010F0895A26
:1003200001C0805D80A3818192819C0164E036954B
:1003300027956A95E1F7A9014F7055272F704A302C
:10034000510510F0295A01C0205D25A3282F2F70D8
:10035000AC014F7055274A30510510F0295A01C0A1
:10036000205D26A39C01232F332722952F702A304E
:10037000310510F0295A01C0205D27A3892F992744
:100380009C012F7033278F702A30310510F0895A65
:1003900001C0805D80A7D701C60134E0B695A7955E
:1003A000979587953A95D1F7AC01BD014F705527C8
:1003B000662777278F704A3051056105710510F067
:1003C000895A01C0805D85A78C2D8F70B701A60169
:1003D0004F705527662777274A305105610571050B
:1003E00010F0895A01C0805D86A7D701C6012CE0B4
:1003F000B695A795979587952A95D1F7AC01BD013C
:100400004F705527662777278F704A305105610551
:10041000710510F0895A01C0805D87A7BB27AF2DF9
:100420009E2D8D2DAC01BD014F7055276627772776
:100430008F704A3051056105710510F0895A01C06D
:10044000805D80AB80E381AB90E39E0D92AB83AB8C
:1004500084AB66E2CF014996CF91FF90EF90DF9099
:10046000CF900C9413010F931F93CF93DF93C09100
:100470001A02D0911B02FC0101900020E9F731978C
:10048000E81BF90B8E0106581F4FED3518F4D80103
:10049000EC9303C02CE5F80120836996D8014C91B8
:1004A00050E0BC01CE010E948308F8016081CE01BA
:1004B000DF91CF911F910F910C9413012F923F92D6
:1004C0004F925F926F927F928F929F92AF92BF9264
:1004D000CF92DF92EF92FF920F931F93CF93DF9310
:1004E000CDB7DEB768970FB6F894DEBF0FBECDBFAD
:1004F000E0911A02F0911B0210823324339486E9B2
:1005000090E02C01612C712C83E990E04C01A12C2E
:10051000B12C89869A86AB86BC8686E890E04C0131
:10052000A12CB12C8D869E86AF86B88A89E790E093
:100530004C01A12CB12C898A9A8AAB8ABC8A88E6A4
:1005400090E04C01A12CB12C8D8A9E8AAF8AB88E86
:100550000E944401843209F170F4833009F032C4FE
:10056000E0911A02F0911B02E558FF4F108282E0E1
:100570000E944C01EDCF8B3209F419C48D3209F081
:1005800021C480911A0290911B02FC01E658FF4F92
:10059000608149960E941301DBCF00911A021091ED
:1005A0001B0268012AE7C20ED11CF60110820E94CC
:1005B0004401E12CF601833261F0908121E0290FA2
:1005C0002083F801E90FF11D818FE80E0E9444019C
:1005D000F1CF8081F801E80FF11D118E0E944401D6
:1005E0000E948600F82EF29480EFF8220E944401C7
:1005F0000E9486008F29E81621F08DE20E940B01EF
:10060000A7CF8BE20E940B017801F9E1EF0EF11CFC
:10061000F801818D843509F4DAC3E0F4873409F4F4
:1006200031C170F4833409F4CDC3843409F40DC3AB
:100630008F3309F0C7C380E091E00E94330288CF76
:100640008D3409F4ACC2833509F4BCC3883409F491
:10065000BEC3B8C38B3609F4F8C248F4833609F434
:10066000FEC2873699F08A3509F0ACC302C38137E0
:1006700009F444C320F48D3609F4EBC1A3C38337D6
:1006800009F4F3C28A3709F4F4C29CC3F801438128
:10069000548160E070E0440F551F661F771FC8014A
:1006A000805C9F4FA5EFB1E02D91322F32953F70C6
:1006B000203A10F0395A01C0305D318F2F702A3046
:1006C00014F0295A01C0205D228F3296E817F907ED
:1006D00059F780911502982F92959F709A3010F0DB
:1006E000995A01C0905DF801E75AFF4F90838F70CF
:1006F0008A3010F0895A01C0805DF801E65AFF4F38
:100700008083F801818192819C01A4E03695279530
:10071000AA95E1F7F901EF70FF272F703A9710F0D3
:10072000295A01C0205DF801E55AFF4F2083282F88
:100730002F70FC01EF70FF273A9710F0295A01C083
:10074000205DF801E45AFF4F20839C01232F3327BB
:1007500022952F702A30310510F0295A01C0205DF2
:10076000F801E35AFF4F2083892F99279C012F70AE
:1007700033278F702A30310510F0895A01C0805D0F
:10078000F801E25AFF4F8083DB01CA0134E0B695DD
:10079000A795979587953A95D1F74C015D01FFE0B4
:1007A0008F229924AA24BB248F702AE082169104F8
:1007B000A104B10410F0895A01C0805DF801E15A2A
:1007C000FF4F8083842F8F704A015B013FE08322BB
:1007D0009924AA24BB249AE089169104A104B104A7
:1007E00010F0895A01C0805DF801E05AFF4F808304
:1007F000DB01CA012CE0B695A795979587952A95B8
:10080000D1F74C015D01EFE08E229924AA24BB248C
:100810008F70FAE08F169104A104B10410F0895A88
:1008200001C0805DF801EF59FF4F8083BB27A72FE0
:10083000962F852F4C015D012FE082229924AA2456
:10084000BB248F703AE083169104A104B10410F028
:10085000895A01C0805DF801EE59FF4F80833196BF
:1008600080E38083319690E3960F90833196808366
:10087000319680838EE4F60180836EE4C7010E9486
:10088000130166CE7801FAE1EF0EF11C58012AE55A
:10089000A20EB11CF70180810E948600D82EF701BC
:1008A00081810E948600D294A0EFDA228D29809364
:1008B000F501F2E0EF0EF11CEA14FB0459F7F70121
:1008C00080810E948600F82EF294E0EFFE22F8016B
:1008D000E55AFF4F80810E9486008F298093150280
:1008E000F801E45AFF4F80810E948600F0E18F9F5B
:1008F00070011124F801F282E182E35AFF4F8081F6
:100900000E9486006701C82AF801D282C182E25A99
:10091000FF4F80810E948600E82EF12CFE2CEE24F1
:10092000F294F0EFFF22EC28FD28F801F282E18238
:10093000E15AFF4F80810E948600F82AF801F28276
:10094000E182E05AFF4F80810E948600F82EF80174
:10095000EF59FF4F80810E948600E82EF801EE5982
:10096000FF4F80810E948600C82EF801ED59FF4F8D
:1009700080810E948600282EF801EC59FF4F80816B
:100980000E948600D82EF801EB59FF4F80810E940B
:1009900086004D2D50E060E070E0A4E1440F551F4B
:1009A000661F771FAA95D1F7682B4A015B018E2835
:1009B000F801EA59FF4F80810E94860090E0A0E094
:1009C000B0E02CE1880F991FAA1FBB1F2A95D1F711
:1009D000882A992AAA2ABB2AF801E959FF4F80815F
:1009E0000E948600B501A401782BF0E1FF9EC001B2
:1009F0001124092E000CAA0BBB0B842B952BA62BC4
:100A0000B72BD12CDC2CCC24D29430EFD3220D2C5C
:100A1000000CEE08FF08AC01BD014C295D296E29D0
:100A20007F29822D90E0982F8827092E000CAA0B91
:100A3000BB0B842B952BA62BB72BB695A79597951B
:100A40008795F8019483838384E091E00E943302C8
:100A50007FCDBE016B5F7F4F5801FAE1AF0EB11C35
:100A6000C5010E94970090E00196BE016F5F7F4F25
:100A70008A0D9B1D0E9497008D819E81AF81B88554
:100A8000AC01BD014427552777274115510520E8C2
:100A900062077105B9F5AA278D839E83AF83B88756
:100AA00089809A80AB80BC8030E0632F262F30E0B5
:100AB00040E050E0281539054A055B0508F067C09D
:100AC000262F30E0FC01E20FF31F4081220F331F7D
:100AD000542F52955F705A3010F0595A01C0505D32
:100AE000F801E20FF31F518F2F5F3F4F4F704A30D5
:100AF00010F0495A01C0405DF801E20FF31F418F29
:100B00006F5FD4CF452B462B472B09F099C0AA27FE
:100B10008D839E83AF83B887B12C2B2C422D50E060
:100B200060E070E089819A81AB81BC8148175907E8
:100B30006A077B0760F58D819E81AF81B8854A0188
:100B40005B01880E991EAA1EBB1EC501B4010E943E
:100B50008300222D30E0220F331F982F92959F7033
:100B60009A3010F0995A01C0905DF801E20FF31F1E
:100B7000918F2F5F3F4F8F708A3010F0895A01C0DC
:100B8000805DF801E20FF31F818F2394C7CF698145
:100B9000660FF6016083C7010E941301D9CC065E7F
:100BA0001F4FBE016B5F7F4FC8010E949700080F67
:100BB000111DBE016F5F7F4FC80101960E94970013
:100BC0004D815E816F8178856A017B01CC24DD24B3
:100BD000FF24C114D104F0E8EF06F10489F566277B
:100BE0004D835E836F8378877A0190E00296080FC9
:100BF000191FC12C8C2D90E0A0E0B0E049815A81F2
:100C00006B817C8184179507A607B70708F0DFC0C2
:100C10005701AC0CB11CF80180810E948600D82ECF
:100C2000D29440EFD422F501D082F80181810E9454
:100C300086008D29F5018083C3940E5F1F4FDACFA4
:100C400087E091E00E94330283CC84E091E00E942F
:100C5000330281E0F801E558FF4F8083C2C081E094
:100C6000F801E558FF4F8083BCC081E0F801808324
:100C7000B8C0BE016B5F7F4FC8014C960E949700C1
:100C800090E00496BE016F5F7F4F8E0D9F1D0E9406
:100C90009700F801828D803309F094C0218D8D81F9
:100CA0009E81AF81B885B695A795979587952A358A
:100CB000F1F4AC01208D3596322F332341F0619150
:100CC00071914617570709F482C03150F6CF28308A
:100CD00008F082C031E0320FF801308FE20FF11DD1
:100CE000E20FF11D96838583F801378A70C00E9458
:100CF000C80084E091E00E9433022ACC2AE030E070
:100D0000B301A201C7010E947608892B31F46DE07E
:100D10008BE091E00E9413011BCC22E030E049857A
:100D20005A856B857C85C7010E947608892B29F43A
:100D300089E191E00E9433020BCC2CE030E04D853C
:100D40005E856F857889C7010E947608892B29F412
:100D50008EE191E00E943302FBCB2CE030E0498928
:100D60005A896B897C89C7010E947608892B29F4EE
:100D700081E291E00E943302EBCB20E130E04D892B
:100D80005E896F89788DC7010E947608892BD1F41E
:100D900084E091E00E94330298E088E10FB6F89475
:100DA000A895809360000FBE90936000FFCFE09104
:100DB0001A02F0911B02E558FF4F8081882309F445
:100DC000C7CB22C086E291E00E943302C1CB84E00F
:100DD00091E00E943302BCCB83E291E00E94330297
:100DE000B7CBF8018081811104C0F801878988237D
:100DF00051F0809169008C7F80936900529AE09A4B
:100E0000E89A5A9801C0E89868960FB6F894DEBF41
:100E10000FBECDBFDF91CF911F910F91FF90EF904B
:100E2000DF90CF90BF90AF909F908F907F906F900A
:100E30005F904F903F902F9008950F920FB6F894C7
:100E4000009215020F90F0931402E0931302F1E068
:100E5000E5EFD58FC48FD0E0C0E0B38FB991B193E7
:100E6000CB31E1F7BF91AF91A087B187ADB7BEB7E6
:100E7000A683B783112484EF91E09EBF8DBFE5EF79
:100E8000F1E084A18F7384A3C0911A02D0911B0258
:100E900083A194A19C838B8381A192A19A8389834E
:100EA0008881811135C08F898823D1F18091C0005C
:100EB000882374F40E9444018093A401833041F498
:100EC000C558DF4F188282E00E944C01E89828C084
:100ED0001092A401488D442319F16B817C818D818E
:100EE0009E8186179707A1F0FE01379681E00BC01F
:100EF0002191319191E0980F2617370719F48093CB
:100F0000A40106C0892F4813F3CF8093A40108C021
:100F1000C558DF4F188285E00E944C010E945E0296
:100F2000F1E0E5EFD0E0C0E0B191B993CC31E1F769
:100F3000D581DDBFD681DEBFD781DF93D085DF933A
:100F4000C081D181E281F0911502FFBFF0911402BE
:100F500018950F920FB6F894009215020F90F09327
:100F60001402E0931302F1E0E5EFD58FC48FD0E0D7
:100F7000C0E0B38FB991B193CB31E1F7BF91AF919D
:100F8000A087B187ADB7BEB7A683B783112484EF1E
:100F900091E09EBF8DBFE5EFF1E084A18F7384A344
:100FA000A0911A02B0911B0283A194A114969C9364
:100FB0008E93139781A192A112969C938E93119771
:100FC0000E945E02F1E0E5EFD0E0C0E0B191B9939C
:100FD000CC31E1F7D581DDBFD681DEBFD781DF938C
:100FE000D085DF93C081D181E281F0911502FFBFEE
:100FF000F09114021895E8E2F1E0F0931B02E093FF
:101000001A0212821182108E1092A2011082109286
:10101000A30182E1ADE2B1E0ED0119928A95E9F711
:10102000178A82E08093C000E1ECF0E088E18083E1
:1010300086E08093C2001092C50080E18093C400D6
:10104000808180688083F894E0E8F0E0808180838C
:10105000E1E8F0E0808189608083EFE6F0E0808164
:10106000826080838AE691E0909389008093880073
:1010700078948AB180668AB984B5806584BD85B567
:10108000816085BDECE7F0E0808180668083EAE7DF
:10109000F0E08081806C8083EEE7F0E08081816009
:1010A00080830000FECF1F920F920FB60F92112483
:1010B0008F93EF93FF938091790087B58F5F87BD02
:1010C000EAE7F0E0808180648083FF91EF918F9167
:1010D0000F900FBE0F901F901895FB01DC0102C00E
:1010E00005900D9241505040D8F70895FA01DC0167
:1010F00004C08D910590801921F421503040C8F72B
:10110000881B990B0895FB01DC0102C001900D9230
:0C11100041505040D8F70895F894FFCFEC
:10111C00533035004F4B00453035005061636B65E3
:10112C007453697A653D36300051433031006D316E
:08113C00006C00453530000095
:00000001FF
